{
  "contractName": "NFTMarketplace",
  "abi": [
    {
      "inputs": [
        {
          "internalType": "address",
          "name": "initialOwner",
          "type": "address"
        }
      ],
      "stateMutability": "nonpayable",
      "type": "constructor"
    },
    {
      "inputs": [
        {
          "internalType": "address",
          "name": "sender",
          "type": "address"
        },
        {
          "internalType": "uint256",
          "name": "tokenId",
          "type": "uint256"
        },
        {
          "internalType": "address",
          "name": "owner",
          "type": "address"
        }
      ],
      "name": "ERC721IncorrectOwner",
      "type": "error"
    },
    {
      "inputs": [
        {
          "internalType": "address",
          "name": "operator",
          "type": "address"
        },
        {
          "internalType": "uint256",
          "name": "tokenId",
          "type": "uint256"
        }
      ],
      "name": "ERC721InsufficientApproval",
      "type": "error"
    },
    {
      "inputs": [
        {
          "internalType": "address",
          "name": "approver",
          "type": "address"
        }
      ],
      "name": "ERC721InvalidApprover",
      "type": "error"
    },
    {
      "inputs": [
        {
          "internalType": "address",
          "name": "operator",
          "type": "address"
        }
      ],
      "name": "ERC721InvalidOperator",
      "type": "error"
    },
    {
      "inputs": [
        {
          "internalType": "address",
          "name": "owner",
          "type": "address"
        }
      ],
      "name": "ERC721InvalidOwner",
      "type": "error"
    },
    {
      "inputs": [
        {
          "internalType": "address",
          "name": "receiver",
          "type": "address"
        }
      ],
      "name": "ERC721InvalidReceiver",
      "type": "error"
    },
    {
      "inputs": [
        {
          "internalType": "address",
          "name": "sender",
          "type": "address"
        }
      ],
      "name": "ERC721InvalidSender",
      "type": "error"
    },
    {
      "inputs": [
        {
          "internalType": "uint256",
          "name": "tokenId",
          "type": "uint256"
        }
      ],
      "name": "ERC721NonexistentToken",
      "type": "error"
    },
    {
      "inputs": [
        {
          "internalType": "address",
          "name": "owner",
          "type": "address"
        }
      ],
      "name": "OwnableInvalidOwner",
      "type": "error"
    },
    {
      "inputs": [
        {
          "internalType": "address",
          "name": "account",
          "type": "address"
        }
      ],
      "name": "OwnableUnauthorizedAccount",
      "type": "error"
    },
    {
      "anonymous": false,
      "inputs": [
        {
          "indexed": true,
          "internalType": "address",
          "name": "owner",
          "type": "address"
        },
        {
          "indexed": true,
          "internalType": "address",
          "name": "approved",
          "type": "address"
        },
        {
          "indexed": true,
          "internalType": "uint256",
          "name": "tokenId",
          "type": "uint256"
        }
      ],
      "name": "Approval",
      "type": "event"
    },
    {
      "anonymous": false,
      "inputs": [
        {
          "indexed": true,
          "internalType": "address",
          "name": "owner",
          "type": "address"
        },
        {
          "indexed": true,
          "internalType": "address",
          "name": "operator",
          "type": "address"
        },
        {
          "indexed": false,
          "internalType": "bool",
          "name": "approved",
          "type": "bool"
        }
      ],
      "name": "ApprovalForAll",
      "type": "event"
    },
    {
      "anonymous": false,
      "inputs": [
        {
          "indexed": false,
          "internalType": "uint256",
          "name": "_fromTokenId",
          "type": "uint256"
        },
        {
          "indexed": false,
          "internalType": "uint256",
          "name": "_toTokenId",
          "type": "uint256"
        }
      ],
      "name": "BatchMetadataUpdate",
      "type": "event"
    },
    {
      "anonymous": false,
      "inputs": [
        {
          "indexed": false,
          "internalType": "uint256",
          "name": "_tokenId",
          "type": "uint256"
        }
      ],
      "name": "MetadataUpdate",
      "type": "event"
    },
    {
      "anonymous": false,
      "inputs": [
        {
          "indexed": false,
          "internalType": "uint256",
          "name": "tokenId",
          "type": "uint256"
        },
        {
          "indexed": false,
          "internalType": "uint256",
          "name": "price",
          "type": "uint256"
        },
        {
          "indexed": false,
          "internalType": "address",
          "name": "seller",
          "type": "address"
        }
      ],
      "name": "NFTListed",
      "type": "event"
    },
    {
      "anonymous": false,
      "inputs": [
        {
          "indexed": false,
          "internalType": "uint256",
          "name": "tokenId",
          "type": "uint256"
        },
        {
          "indexed": false,
          "internalType": "string",
          "name": "tokenURI",
          "type": "string"
        },
        {
          "indexed": false,
          "internalType": "string",
          "name": "collection",
          "type": "string"
        },
        {
          "indexed": false,
          "internalType": "address",
          "name": "owner",
          "type": "address"
        }
      ],
      "name": "NFTMinted",
      "type": "event"
    },
    {
      "anonymous": false,
      "inputs": [
        {
          "indexed": false,
          "internalType": "uint256",
          "name": "tokenId",
          "type": "uint256"
        },
        {
          "indexed": false,
          "internalType": "uint256",
          "name": "price",
          "type": "uint256"
        },
        {
          "indexed": false,
          "internalType": "address",
          "name": "seller",
          "type": "address"
        },
        {
          "indexed": false,
          "internalType": "address",
          "name": "buyer",
          "type": "address"
        }
      ],
      "name": "NFTSold",
      "type": "event"
    },
    {
      "anonymous": false,
      "inputs": [
        {
          "indexed": true,
          "internalType": "address",
          "name": "previousOwner",
          "type": "address"
        },
        {
          "indexed": true,
          "internalType": "address",
          "name": "newOwner",
          "type": "address"
        }
      ],
      "name": "OwnershipTransferred",
      "type": "event"
    },
    {
      "anonymous": false,
      "inputs": [
        {
          "indexed": true,
          "internalType": "address",
          "name": "from",
          "type": "address"
        },
        {
          "indexed": true,
          "internalType": "address",
          "name": "to",
          "type": "address"
        },
        {
          "indexed": true,
          "internalType": "uint256",
          "name": "tokenId",
          "type": "uint256"
        }
      ],
      "name": "Transfer",
      "type": "event"
    },
    {
      "inputs": [
        {
          "internalType": "uint256",
          "name": "",
          "type": "uint256"
        }
      ],
      "name": "allNFTs",
      "outputs": [
        {
          "internalType": "uint256",
          "name": "",
          "type": "uint256"
        }
      ],
      "stateMutability": "view",
      "type": "function",
      "constant": true
    },
    {
      "inputs": [
        {
          "internalType": "address",
          "name": "to",
          "type": "address"
        },
        {
          "internalType": "uint256",
          "name": "tokenId",
          "type": "uint256"
        }
      ],
      "name": "approve",
      "outputs": [],
      "stateMutability": "nonpayable",
      "type": "function"
    },
    {
      "inputs": [
        {
          "internalType": "address",
          "name": "owner",
          "type": "address"
        }
      ],
      "name": "balanceOf",
      "outputs": [
        {
          "internalType": "uint256",
          "name": "",
          "type": "uint256"
        }
      ],
      "stateMutability": "view",
      "type": "function",
      "constant": true
    },
    {
      "inputs": [
        {
          "internalType": "uint256",
          "name": "tokenId",
          "type": "uint256"
        }
      ],
      "name": "getApproved",
      "outputs": [
        {
          "internalType": "address",
          "name": "",
          "type": "address"
        }
      ],
      "stateMutability": "view",
      "type": "function",
      "constant": true
    },
    {
      "inputs": [
        {
          "internalType": "address",
          "name": "owner",
          "type": "address"
        },
        {
          "internalType": "address",
          "name": "operator",
          "type": "address"
        }
      ],
      "name": "isApprovedForAll",
      "outputs": [
        {
          "internalType": "bool",
          "name": "",
          "type": "bool"
        }
      ],
      "stateMutability": "view",
      "type": "function",
      "constant": true
    },
    {
      "inputs": [],
      "name": "name",
      "outputs": [
        {
          "internalType": "string",
          "name": "",
          "type": "string"
        }
      ],
      "stateMutability": "view",
      "type": "function",
      "constant": true
    },
    {
      "inputs": [],
      "name": "nextTokenId",
      "outputs": [
        {
          "internalType": "uint256",
          "name": "",
          "type": "uint256"
        }
      ],
      "stateMutability": "view",
      "type": "function",
      "constant": true
    },
    {
      "inputs": [
        {
          "internalType": "uint256",
          "name": "",
          "type": "uint256"
        }
      ],
      "name": "nftCollections",
      "outputs": [
        {
          "internalType": "string",
          "name": "",
          "type": "string"
        }
      ],
      "stateMutability": "view",
      "type": "function",
      "constant": true
    },
    {
      "inputs": [
        {
          "internalType": "uint256",
          "name": "",
          "type": "uint256"
        }
      ],
      "name": "nftPrices",
      "outputs": [
        {
          "internalType": "uint256",
          "name": "",
          "type": "uint256"
        }
      ],
      "stateMutability": "view",
      "type": "function",
      "constant": true
    },
    {
      "inputs": [],
      "name": "owner",
      "outputs": [
        {
          "internalType": "address",
          "name": "",
          "type": "address"
        }
      ],
      "stateMutability": "view",
      "type": "function",
      "constant": true
    },
    {
      "inputs": [
        {
          "internalType": "uint256",
          "name": "tokenId",
          "type": "uint256"
        }
      ],
      "name": "ownerOf",
      "outputs": [
        {
          "internalType": "address",
          "name": "",
          "type": "address"
        }
      ],
      "stateMutability": "view",
      "type": "function",
      "constant": true
    },
    {
      "inputs": [],
      "name": "renounceOwnership",
      "outputs": [],
      "stateMutability": "nonpayable",
      "type": "function"
    },
    {
      "inputs": [
        {
          "internalType": "address",
          "name": "from",
          "type": "address"
        },
        {
          "internalType": "address",
          "name": "to",
          "type": "address"
        },
        {
          "internalType": "uint256",
          "name": "tokenId",
          "type": "uint256"
        }
      ],
      "name": "safeTransferFrom",
      "outputs": [],
      "stateMutability": "nonpayable",
      "type": "function"
    },
    {
      "inputs": [
        {
          "internalType": "address",
          "name": "from",
          "type": "address"
        },
        {
          "internalType": "address",
          "name": "to",
          "type": "address"
        },
        {
          "internalType": "uint256",
          "name": "tokenId",
          "type": "uint256"
        },
        {
          "internalType": "bytes",
          "name": "data",
          "type": "bytes"
        }
      ],
      "name": "safeTransferFrom",
      "outputs": [],
      "stateMutability": "nonpayable",
      "type": "function"
    },
    {
      "inputs": [
        {
          "internalType": "address",
          "name": "operator",
          "type": "address"
        },
        {
          "internalType": "bool",
          "name": "approved",
          "type": "bool"
        }
      ],
      "name": "setApprovalForAll",
      "outputs": [],
      "stateMutability": "nonpayable",
      "type": "function"
    },
    {
      "inputs": [
        {
          "internalType": "bytes4",
          "name": "interfaceId",
          "type": "bytes4"
        }
      ],
      "name": "supportsInterface",
      "outputs": [
        {
          "internalType": "bool",
          "name": "",
          "type": "bool"
        }
      ],
      "stateMutability": "view",
      "type": "function",
      "constant": true
    },
    {
      "inputs": [],
      "name": "symbol",
      "outputs": [
        {
          "internalType": "string",
          "name": "",
          "type": "string"
        }
      ],
      "stateMutability": "view",
      "type": "function",
      "constant": true
    },
    {
      "inputs": [
        {
          "internalType": "uint256",
          "name": "tokenId",
          "type": "uint256"
        }
      ],
      "name": "tokenURI",
      "outputs": [
        {
          "internalType": "string",
          "name": "",
          "type": "string"
        }
      ],
      "stateMutability": "view",
      "type": "function",
      "constant": true
    },
    {
      "inputs": [
        {
          "internalType": "address",
          "name": "from",
          "type": "address"
        },
        {
          "internalType": "address",
          "name": "to",
          "type": "address"
        },
        {
          "internalType": "uint256",
          "name": "tokenId",
          "type": "uint256"
        }
      ],
      "name": "transferFrom",
      "outputs": [],
      "stateMutability": "nonpayable",
      "type": "function"
    },
    {
      "inputs": [
        {
          "internalType": "address",
          "name": "newOwner",
          "type": "address"
        }
      ],
      "name": "transferOwnership",
      "outputs": [],
      "stateMutability": "nonpayable",
      "type": "function"
    },
    {
      "inputs": [
        {
          "internalType": "string",
          "name": "tokenURI",
          "type": "string"
        },
        {
          "internalType": "string",
          "name": "collection",
          "type": "string"
        }
      ],
      "name": "mintNFT",
      "outputs": [],
      "stateMutability": "nonpayable",
      "type": "function"
    },
    {
      "inputs": [
        {
          "internalType": "uint256",
          "name": "tokenId",
          "type": "uint256"
        },
        {
          "internalType": "uint256",
          "name": "price",
          "type": "uint256"
        }
      ],
      "name": "listNFT",
      "outputs": [],
      "stateMutability": "nonpayable",
      "type": "function"
    },
    {
      "inputs": [
        {
          "internalType": "uint256",
          "name": "tokenId",
          "type": "uint256"
        }
      ],
      "name": "buyNFT",
      "outputs": [],
      "stateMutability": "payable",
      "type": "function",
      "payable": true
    },
    {
      "inputs": [
        {
          "internalType": "uint256",
          "name": "tokenId",
          "type": "uint256"
        }
      ],
      "name": "getCollection",
      "outputs": [
        {
          "internalType": "string",
          "name": "",
          "type": "string"
        }
      ],
      "stateMutability": "view",
      "type": "function",
      "constant": true
    },
    {
      "inputs": [],
      "name": "getAllNFTs",
      "outputs": [
        {
          "internalType": "uint256[]",
          "name": "",
          "type": "uint256[]"
        }
      ],
      "stateMutability": "view",
      "type": "function",
      "constant": true
    }
  ],
  "bytecode": "0x608060405234801561000f575f5ffd5b506040516137a83803806137a883398181016040528101906100319190610266565b806040518060400160405280600f81526020017f4e4654204d61726b6574706c61636500000000000000000000000000000000008152506040518060400160405280600481526020017f4e46544d00000000000000000000000000000000000000000000000000000000815250815f90816100ac91906104ce565b5080600190816100bc91906104ce565b5050505f73ffffffffffffffffffffffffffffffffffffffff168173ffffffffffffffffffffffffffffffffffffffff160361012f575f6040517f1e4fbdf700000000000000000000000000000000000000000000000000000000815260040161012691906105ac565b60405180910390fd5b61013e8161014560201b60201c565b50506105c5565b5f60075f9054906101000a900473ffffffffffffffffffffffffffffffffffffffff1690508160075f6101000a81548173ffffffffffffffffffffffffffffffffffffffff021916908373ffffffffffffffffffffffffffffffffffffffff1602179055508173ffffffffffffffffffffffffffffffffffffffff168173ffffffffffffffffffffffffffffffffffffffff167f8be0079c531659141344cd1fd0a4f28419497f9722a3daafe3b4186f6b6457e060405160405180910390a35050565b5f5ffd5b5f73ffffffffffffffffffffffffffffffffffffffff82169050919050565b5f6102358261020c565b9050919050565b6102458161022b565b811461024f575f5ffd5b50565b5f815190506102608161023c565b92915050565b5f6020828403121561027b5761027a610208565b5b5f61028884828501610252565b91505092915050565b5f81519050919050565b7f4e487b71000000000000000000000000000000000000000000000000000000005f52604160045260245ffd5b7f4e487b71000000000000000000000000000000000000000000000000000000005f52602260045260245ffd5b5f600282049050600182168061030c57607f821691505b60208210810361031f5761031e6102c8565b5b50919050565b5f819050815f5260205f209050919050565b5f6020601f8301049050919050565b5f82821b905092915050565b5f600883026103817fffffffffffffffffffffffffffffffffffffffffffffffffffffffffffffffff82610346565b61038b8683610346565b95508019841693508086168417925050509392505050565b5f819050919050565b5f819050919050565b5f6103cf6103ca6103c5846103a3565b6103ac565b6103a3565b9050919050565b5f819050919050565b6103e8836103b5565b6103fc6103f4826103d6565b848454610352565b825550505050565b5f5f905090565b610413610404565b61041e8184846103df565b505050565b5b81811015610441576104365f8261040b565b600181019050610424565b5050565b601f8211156104865761045781610325565b61046084610337565b8101602085101561046f578190505b61048361047b85610337565b830182610423565b50505b505050565b5f82821c905092915050565b5f6104a65f198460080261048b565b1980831691505092915050565b5f6104be8383610497565b9150826002028217905092915050565b6104d782610291565b67ffffffffffffffff8111156104f0576104ef61029b565b5b6104fa82546102f5565b610505828285610445565b5f60209050601f831160018114610536575f8415610524578287015190505b61052e85826104b3565b865550610595565b601f19841661054486610325565b5f5b8281101561056b57848901518255600182019150602085019450602081019050610546565b868310156105885784890151610584601f891682610497565b8355505b6001600288020188555050505b505050505050565b6105a68161022b565b82525050565b5f6020820190506105bf5f83018461059d565b92915050565b6131d6806105d25f395ff3fe608060405260043610610165575f3560e01c80638da5cb5b116100d0578063bfca66c911610089578063e0391b0911610063578063e0391b091461054f578063e960554414610579578063e985e9c5146105a1578063f2fde38b146105dd57610165565b8063bfca66c91461049b578063c87b56dd146104d7578063d9f10a2b1461051357610165565b80638da5cb5b1461039357806394383f14146103bd57806395d89b41146103e5578063a22cb4651461040f578063b88d4fde14610437578063bf162d671461045f57610165565b806351ed82881161012257806351ed8288146102835780635a1f3c281461029f5780636352211e146102db57806370a0823114610317578063715018a61461035357806375794a3c1461036957610165565b806301ffc9a71461016957806306fdde03146101a5578063081812fc146101cf578063095ea7b31461020b57806323b872dd1461023357806342842e0e1461025b575b5f5ffd5b348015610174575f5ffd5b5061018f600480360381019061018a919061230c565b610605565b60405161019c9190612351565b60405180910390f35b3480156101b0575f5ffd5b506101b9610665565b6040516101c691906123da565b60405180910390f35b3480156101da575f5ffd5b506101f560048036038101906101f0919061242d565b6106f4565b6040516102029190612497565b60405180910390f35b348015610216575f5ffd5b50610231600480360381019061022c91906124da565b61070f565b005b34801561023e575f5ffd5b5061025960048036038101906102549190612518565b610725565b005b348015610266575f5ffd5b50610281600480360381019061027c9190612518565b610824565b005b61029d6004803603810190610298919061242d565b610843565b005b3480156102aa575f5ffd5b506102c560048036038101906102c0919061242d565b61098f565b6040516102d291906123da565b60405180910390f35b3480156102e6575f5ffd5b5061030160048036038101906102fc919061242d565b610a30565b60405161030e9190612497565b60405180910390f35b348015610322575f5ffd5b5061033d60048036038101906103389190612568565b610a41565b60405161034a91906125a2565b60405180910390f35b34801561035e575f5ffd5b50610367610af7565b005b348015610374575f5ffd5b5061037d610b0a565b60405161038a91906125a2565b60405180910390f35b34801561039e575f5ffd5b506103a7610b10565b6040516103b49190612497565b60405180910390f35b3480156103c8575f5ffd5b506103e360048036038101906103de91906125bb565b610b38565b005b3480156103f0575f5ffd5b506103f9610c45565b60405161040691906123da565b60405180910390f35b34801561041a575f5ffd5b5061043560048036038101906104309190612623565b610cd5565b005b348015610442575f5ffd5b5061045d6004803603810190610458919061278d565b610ceb565b005b34801561046a575f5ffd5b506104856004803603810190610480919061242d565b610d10565b60405161049291906125a2565b60405180910390f35b3480156104a6575f5ffd5b506104c160048036038101906104bc919061242d565b610d30565b6040516104ce91906123da565b60405180910390f35b3480156104e2575f5ffd5b506104fd60048036038101906104f8919061242d565b610dcb565b60405161050a91906123da565b60405180910390f35b34801561051e575f5ffd5b506105396004803603810190610534919061242d565b610ed6565b60405161054691906125a2565b60405180910390f35b34801561055a575f5ffd5b50610563610eeb565b60405161057091906128c4565b60405180910390f35b348015610584575f5ffd5b5061059f600480360381019061059a9190612982565b610f41565b005b3480156105ac575f5ffd5b506105c760048036038101906105c291906129f8565b611001565b6040516105d49190612351565b60405180910390f35b3480156105e8575f5ffd5b5061060360048036038101906105fe9190612568565b61108f565b005b5f634906490660e01b7bffffffffffffffffffffffffffffffffffffffffffffffffffffffff1916827bffffffffffffffffffffffffffffffffffffffffffffffffffffffff1916148061065e575061065d82611113565b5b9050919050565b60605f805461067390612a63565b80601f016020809104026020016040519081016040528092919081815260200182805461069f90612a63565b80156106ea5780601f106106c1576101008083540402835291602001916106ea565b820191905f5260205f20905b8154815290600101906020018083116106cd57829003601f168201915b5050505050905090565b5f6106fe826111f4565b506107088261127a565b9050919050565b610721828261071c6112b3565b6112ba565b5050565b5f73ffffffffffffffffffffffffffffffffffffffff168273ffffffffffffffffffffffffffffffffffffffff1603610795575f6040517f64a0ae9200000000000000000000000000000000000000000000000000000000815260040161078c9190612497565b60405180910390fd5b5f6107a883836107a36112b3565b6112cc565b90508373ffffffffffffffffffffffffffffffffffffffff168173ffffffffffffffffffffffffffffffffffffffff161461081e578382826040517f64283d7b00000000000000000000000000000000000000000000000000000000815260040161081593929190612a93565b60405180910390fd5b50505050565b61083e83838360405180602001604052805f815250610ceb565b505050565b5f60095f8381526020019081526020015f205490505f61086283610a30565b90505f82116108a6576040517f08c379a000000000000000000000000000000000000000000000000000000000815260040161089d90612b12565b60405180910390fd5b8134146108e8576040517f08c379a00000000000000000000000000000000000000000000000000000000081526004016108df90612b7a565b60405180910390fd5b8073ffffffffffffffffffffffffffffffffffffffff166108fc3490811502906040515f60405180830381858888f1935050505015801561092b573d5f5f3e3d5ffd5b506109378133856114d7565b5f60095f8581526020019081526020015f20819055507f2820044bbebd591ee7d08b7d81dd01945a1a32706da693a946e532d6d9884258838383336040516109829493929190612b98565b60405180910390a1505050565b6060600a5f8381526020019081526020015f2080546109ad90612a63565b80601f01602080910402602001604051908101604052809291908181526020018280546109d990612a63565b8015610a245780601f106109fb57610100808354040283529160200191610a24565b820191905f5260205f20905b815481529060010190602001808311610a0757829003601f168201915b50505050509050919050565b5f610a3a826111f4565b9050919050565b5f5f73ffffffffffffffffffffffffffffffffffffffff168273ffffffffffffffffffffffffffffffffffffffff1603610ab2575f6040517f89c62b64000000000000000000000000000000000000000000000000000000008152600401610aa99190612497565b60405180910390fd5b60035f8373ffffffffffffffffffffffffffffffffffffffff1673ffffffffffffffffffffffffffffffffffffffff1681526020019081526020015f20549050919050565b610aff61163f565b610b085f6116c6565b565b60085481565b5f60075f9054906101000a900473ffffffffffffffffffffffffffffffffffffffff16905090565b3373ffffffffffffffffffffffffffffffffffffffff16610b5883610a30565b73ffffffffffffffffffffffffffffffffffffffff1614610bae576040517f08c379a0000000000000000000000000000000000000000000000000000000008152600401610ba590612c25565b60405180910390fd5b5f8111610bf0576040517f08c379a0000000000000000000000000000000000000000000000000000000008152600401610be790612c8d565b60405180910390fd5b8060095f8481526020019081526020015f20819055507fd2ab19646d6f9fdd37206f962b4ebaab8a4a23ad87f7695e7e1736803cb8bf74828233604051610c3993929190612cab565b60405180910390a15050565b606060018054610c5490612a63565b80601f0160208091040260200160405190810160405280929190818152602001828054610c8090612a63565b8015610ccb5780601f10610ca257610100808354040283529160200191610ccb565b820191905f5260205f20905b815481529060010190602001808311610cae57829003601f168201915b5050505050905090565b610ce7610ce06112b3565b8383611789565b5050565b610cf6848484610725565b610d0a610d016112b3565b858585856118f2565b50505050565b600b8181548110610d1f575f80fd5b905f5260205f20015f915090505481565b600a602052805f5260405f205f915090508054610d4c90612a63565b80601f0160208091040260200160405190810160405280929190818152602001828054610d7890612a63565b8015610dc35780601f10610d9a57610100808354040283529160200191610dc3565b820191905f5260205f20905b815481529060010190602001808311610da657829003601f168201915b505050505081565b6060610dd6826111f4565b505f60065f8481526020019081526020015f208054610df490612a63565b80601f0160208091040260200160405190810160405280929190818152602001828054610e2090612a63565b8015610e6b5780601f10610e4257610100808354040283529160200191610e6b565b820191905f5260205f20905b815481529060010190602001808311610e4e57829003601f168201915b505050505090505f610e7b611a9e565b90505f815103610e8f578192505050610ed1565b5f82511115610ec3578082604051602001610eab929190612d1a565b60405160208183030381529060405292505050610ed1565b610ecc84611ab4565b925050505b919050565b6009602052805f5260405f205f915090505481565b6060600b805480602002602001604051908101604052809291908181526020018280548015610f3757602002820191905f5260205f20905b815481526020019060010190808311610f23575b5050505050905090565b610f4961163f565b5f6008549050610f593382611b1a565b610f638184611b37565b81600a5f8381526020019081526020015f209081610f819190612edd565b50600b81908060018154018082558091505060019003905f5260205f20015f909190919091505560085f815480929190610fba90612fd9565b91905055507f7f73399c1bc215c46298ed594c196639fcfe705fb3d062bc005df63872c6941b81848433604051610ff49493929190613020565b60405180910390a1505050565b5f60055f8473ffffffffffffffffffffffffffffffffffffffff1673ffffffffffffffffffffffffffffffffffffffff1681526020019081526020015f205f8373ffffffffffffffffffffffffffffffffffffffff1673ffffffffffffffffffffffffffffffffffffffff1681526020019081526020015f205f9054906101000a900460ff16905092915050565b61109761163f565b5f73ffffffffffffffffffffffffffffffffffffffff168173ffffffffffffffffffffffffffffffffffffffff1603611107575f6040517f1e4fbdf70000000000000000000000000000000000000000000000000000000081526004016110fe9190612497565b60405180910390fd5b611110816116c6565b50565b5f7f80ac58cd000000000000000000000000000000000000000000000000000000007bffffffffffffffffffffffffffffffffffffffffffffffffffffffff1916827bffffffffffffffffffffffffffffffffffffffffffffffffffffffff191614806111dd57507f5b5e139f000000000000000000000000000000000000000000000000000000007bffffffffffffffffffffffffffffffffffffffffffffffffffffffff1916827bffffffffffffffffffffffffffffffffffffffffffffffffffffffff1916145b806111ed57506111ec82611b91565b5b9050919050565b5f5f6111ff83611bfa565b90505f73ffffffffffffffffffffffffffffffffffffffff168173ffffffffffffffffffffffffffffffffffffffff160361127157826040517f7e27328900000000000000000000000000000000000000000000000000000000815260040161126891906125a2565b60405180910390fd5b80915050919050565b5f60045f8381526020019081526020015f205f9054906101000a900473ffffffffffffffffffffffffffffffffffffffff169050919050565b5f33905090565b6112c78383836001611c33565b505050565b5f5f6112d784611bfa565b90505f73ffffffffffffffffffffffffffffffffffffffff168373ffffffffffffffffffffffffffffffffffffffff161461131857611317818486611df2565b5b5f73ffffffffffffffffffffffffffffffffffffffff168173ffffffffffffffffffffffffffffffffffffffff16146113a3576113575f855f5f611c33565b600160035f8373ffffffffffffffffffffffffffffffffffffffff1673ffffffffffffffffffffffffffffffffffffffff1681526020019081526020015f205f82825403925050819055505b5f73ffffffffffffffffffffffffffffffffffffffff168573ffffffffffffffffffffffffffffffffffffffff161461142257600160035f8773ffffffffffffffffffffffffffffffffffffffff1673ffffffffffffffffffffffffffffffffffffffff1681526020019081526020015f205f82825401925050819055505b8460025f8681526020019081526020015f205f6101000a81548173ffffffffffffffffffffffffffffffffffffffff021916908373ffffffffffffffffffffffffffffffffffffffff160217905550838573ffffffffffffffffffffffffffffffffffffffff168273ffffffffffffffffffffffffffffffffffffffff167fddf252ad1be2c89b69c2b068fc378daa952ba7f163c4a11628f55a4df523b3ef60405160405180910390a4809150509392505050565b5f73ffffffffffffffffffffffffffffffffffffffff168273ffffffffffffffffffffffffffffffffffffffff1603611547575f6040517f64a0ae9200000000000000000000000000000000000000000000000000000000815260040161153e9190612497565b60405180910390fd5b5f61155383835f6112cc565b90505f73ffffffffffffffffffffffffffffffffffffffff168173ffffffffffffffffffffffffffffffffffffffff16036115c557816040517f7e2732890000000000000000000000000000000000000000000000000000000081526004016115bc91906125a2565b60405180910390fd5b8373ffffffffffffffffffffffffffffffffffffffff168173ffffffffffffffffffffffffffffffffffffffff1614611639578382826040517f64283d7b00000000000000000000000000000000000000000000000000000000815260040161163093929190612a93565b60405180910390fd5b50505050565b6116476112b3565b73ffffffffffffffffffffffffffffffffffffffff16611665610b10565b73ffffffffffffffffffffffffffffffffffffffff16146116c4576116886112b3565b6040517f118cdaa70000000000000000000000000000000000000000000000000000000081526004016116bb9190612497565b60405180910390fd5b565b5f60075f9054906101000a900473ffffffffffffffffffffffffffffffffffffffff1690508160075f6101000a81548173ffffffffffffffffffffffffffffffffffffffff021916908373ffffffffffffffffffffffffffffffffffffffff1602179055508173ffffffffffffffffffffffffffffffffffffffff168173ffffffffffffffffffffffffffffffffffffffff167f8be0079c531659141344cd1fd0a4f28419497f9722a3daafe3b4186f6b6457e060405160405180910390a35050565b5f73ffffffffffffffffffffffffffffffffffffffff168273ffffffffffffffffffffffffffffffffffffffff16036117f957816040517f5b08ba180000000000000000000000000000000000000000000000000000000081526004016117f09190612497565b60405180910390fd5b8060055f8573ffffffffffffffffffffffffffffffffffffffff1673ffffffffffffffffffffffffffffffffffffffff1681526020019081526020015f205f8473ffffffffffffffffffffffffffffffffffffffff1673ffffffffffffffffffffffffffffffffffffffff1681526020019081526020015f205f6101000a81548160ff0219169083151502179055508173ffffffffffffffffffffffffffffffffffffffff168373ffffffffffffffffffffffffffffffffffffffff167f17307eab39ab6107e8899845ad3d59bd9653f200f220920489ca2b5937696c31836040516118e59190612351565b60405180910390a3505050565b5f8373ffffffffffffffffffffffffffffffffffffffff163b1115611a97578273ffffffffffffffffffffffffffffffffffffffff1663150b7a02868685856040518563ffffffff1660e01b815260040161195094939291906130c3565b6020604051808303815f875af192505050801561198b57506040513d601f19601f820116820180604052508101906119889190613121565b60015b611a0c573d805f81146119b9576040519150601f19603f3d011682016040523d82523d5f602084013e6119be565b606091505b505f815103611a0457836040517f64a0ae920000000000000000000000000000000000000000000000000000000081526004016119fb9190612497565b60405180910390fd5b805181602001fd5b63150b7a0260e01b7bffffffffffffffffffffffffffffffffffffffffffffffffffffffff1916817bffffffffffffffffffffffffffffffffffffffffffffffffffffffff191614611a9557836040517f64a0ae92000000000000000000000000000000000000000000000000000000008152600401611a8c9190612497565b60405180910390fd5b505b5050505050565b606060405180602001604052805f815250905090565b6060611abf826111f4565b505f611ac9611a9e565b90505f815111611ae75760405180602001604052805f815250611b12565b80611af184611eb5565b604051602001611b02929190612d1a565b6040516020818303038152906040525b915050919050565b611b33828260405180602001604052805f815250611f7f565b5050565b8060065f8481526020019081526020015f209081611b559190612edd565b507ff8e1a15aba9398e019f0b49df1a4fde98ee17ae345cb5f6b5e2c27f5033e8ce782604051611b8591906125a2565b60405180910390a15050565b5f7f01ffc9a7000000000000000000000000000000000000000000000000000000007bffffffffffffffffffffffffffffffffffffffffffffffffffffffff1916827bffffffffffffffffffffffffffffffffffffffffffffffffffffffff1916149050919050565b5f60025f8381526020019081526020015f205f9054906101000a900473ffffffffffffffffffffffffffffffffffffffff169050919050565b8080611c6b57505f73ffffffffffffffffffffffffffffffffffffffff168273ffffffffffffffffffffffffffffffffffffffff1614155b15611d9d575f611c7a846111f4565b90505f73ffffffffffffffffffffffffffffffffffffffff168373ffffffffffffffffffffffffffffffffffffffff1614158015611ce457508273ffffffffffffffffffffffffffffffffffffffff168173ffffffffffffffffffffffffffffffffffffffff1614155b8015611cf75750611cf58184611001565b155b15611d3957826040517fa9fbf51f000000000000000000000000000000000000000000000000000000008152600401611d309190612497565b60405180910390fd5b8115611d9b57838573ffffffffffffffffffffffffffffffffffffffff168273ffffffffffffffffffffffffffffffffffffffff167f8c5be1e5ebec7d5bd14f71427d1e84f3dd0314c0f7b2291e5b200ac8c7c3b92560405160405180910390a45b505b8360045f8581526020019081526020015f205f6101000a81548173ffffffffffffffffffffffffffffffffffffffff021916908373ffffffffffffffffffffffffffffffffffffffff16021790555050505050565b611dfd838383611fa2565b611eb0575f73ffffffffffffffffffffffffffffffffffffffff168373ffffffffffffffffffffffffffffffffffffffff1603611e7157806040517f7e273289000000000000000000000000000000000000000000000000000000008152600401611e6891906125a2565b60405180910390fd5b81816040517f177e802f000000000000000000000000000000000000000000000000000000008152600401611ea792919061314c565b60405180910390fd5b505050565b60605f6001611ec384612062565b0190505f8167ffffffffffffffff811115611ee157611ee0612669565b5b6040519080825280601f01601f191660200182016040528015611f135781602001600182028036833780820191505090505b5090505f82602001820190505b600115611f74578080600190039150507f3031323334353637383961626364656600000000000000000000000000000000600a86061a8153600a8581611f6957611f68613173565b5b0494505f8503611f20575b819350505050919050565b611f8983836121b3565b611f9d611f946112b3565b5f8585856118f2565b505050565b5f5f73ffffffffffffffffffffffffffffffffffffffff168373ffffffffffffffffffffffffffffffffffffffff161415801561205957508273ffffffffffffffffffffffffffffffffffffffff168473ffffffffffffffffffffffffffffffffffffffff16148061201a57506120198484611001565b5b8061205857508273ffffffffffffffffffffffffffffffffffffffff166120408361127a565b73ffffffffffffffffffffffffffffffffffffffff16145b5b90509392505050565b5f5f5f90507a184f03e93ff9f4daa797ed6e38ed64bf6a1f01000000000000000083106120be577a184f03e93ff9f4daa797ed6e38ed64bf6a1f01000000000000000083816120b4576120b3613173565b5b0492506040810190505b6d04ee2d6d415b85acef810000000083106120fb576d04ee2d6d415b85acef810000000083816120f1576120f0613173565b5b0492506020810190505b662386f26fc10000831061212a57662386f26fc1000083816121205761211f613173565b5b0492506010810190505b6305f5e1008310612153576305f5e100838161214957612148613173565b5b0492506008810190505b612710831061217857612710838161216e5761216d613173565b5b0492506004810190505b6064831061219b576064838161219157612190613173565b5b0492506002810190505b600a83106121aa576001810190505b80915050919050565b5f73ffffffffffffffffffffffffffffffffffffffff168273ffffffffffffffffffffffffffffffffffffffff1603612223575f6040517f64a0ae9200000000000000000000000000000000000000000000000000000000815260040161221a9190612497565b60405180910390fd5b5f61222f83835f6112cc565b90505f73ffffffffffffffffffffffffffffffffffffffff168173ffffffffffffffffffffffffffffffffffffffff16146122a1575f6040517f73c6ac6e0000000000000000000000000000000000000000000000000000000081526004016122989190612497565b60405180910390fd5b505050565b5f604051905090565b5f5ffd5b5f5ffd5b5f7fffffffff0000000000000000000000000000000000000000000000000000000082169050919050565b6122eb816122b7565b81146122f5575f5ffd5b50565b5f81359050612306816122e2565b92915050565b5f60208284031215612321576123206122af565b5b5f61232e848285016122f8565b91505092915050565b5f8115159050919050565b61234b81612337565b82525050565b5f6020820190506123645f830184612342565b92915050565b5f81519050919050565b5f82825260208201905092915050565b8281835e5f83830152505050565b5f601f19601f8301169050919050565b5f6123ac8261236a565b6123b68185612374565b93506123c6818560208601612384565b6123cf81612392565b840191505092915050565b5f6020820190508181035f8301526123f281846123a2565b905092915050565b5f819050919050565b61240c816123fa565b8114612416575f5ffd5b50565b5f8135905061242781612403565b92915050565b5f60208284031215612442576124416122af565b5b5f61244f84828501612419565b91505092915050565b5f73ffffffffffffffffffffffffffffffffffffffff82169050919050565b5f61248182612458565b9050919050565b61249181612477565b82525050565b5f6020820190506124aa5f830184612488565b92915050565b6124b981612477565b81146124c3575f5ffd5b50565b5f813590506124d4816124b0565b92915050565b5f5f604083850312156124f0576124ef6122af565b5b5f6124fd858286016124c6565b925050602061250e85828601612419565b9150509250929050565b5f5f5f6060848603121561252f5761252e6122af565b5b5f61253c868287016124c6565b935050602061254d868287016124c6565b925050604061255e86828701612419565b9150509250925092565b5f6020828403121561257d5761257c6122af565b5b5f61258a848285016124c6565b91505092915050565b61259c816123fa565b82525050565b5f6020820190506125b55f830184612593565b92915050565b5f5f604083850312156125d1576125d06122af565b5b5f6125de85828601612419565b92505060206125ef85828601612419565b9150509250929050565b61260281612337565b811461260c575f5ffd5b50565b5f8135905061261d816125f9565b92915050565b5f5f60408385031215612639576126386122af565b5b5f612646858286016124c6565b92505060206126578582860161260f565b9150509250929050565b5f5ffd5b5f5ffd5b7f4e487b71000000000000000000000000000000000000000000000000000000005f52604160045260245ffd5b61269f82612392565b810181811067ffffffffffffffff821117156126be576126bd612669565b5b80604052505050565b5f6126d06122a6565b90506126dc8282612696565b919050565b5f67ffffffffffffffff8211156126fb576126fa612669565b5b61270482612392565b9050602081019050919050565b828183375f83830152505050565b5f61273161272c846126e1565b6126c7565b90508281526020810184848401111561274d5761274c612665565b5b612758848285612711565b509392505050565b5f82601f83011261277457612773612661565b5b813561278484826020860161271f565b91505092915050565b5f5f5f5f608085870312156127a5576127a46122af565b5b5f6127b2878288016124c6565b94505060206127c3878288016124c6565b93505060406127d487828801612419565b925050606085013567ffffffffffffffff8111156127f5576127f46122b3565b5b61280187828801612760565b91505092959194509250565b5f81519050919050565b5f82825260208201905092915050565b5f819050602082019050919050565b61283f816123fa565b82525050565b5f6128508383612836565b60208301905092915050565b5f602082019050919050565b5f6128728261280d565b61287c8185612817565b935061288783612827565b805f5b838110156128b757815161289e8882612845565b97506128a98361285c565b92505060018101905061288a565b5085935050505092915050565b5f6020820190508181035f8301526128dc8184612868565b905092915050565b5f67ffffffffffffffff8211156128fe576128fd612669565b5b61290782612392565b9050602081019050919050565b5f612926612921846128e4565b6126c7565b90508281526020810184848401111561294257612941612665565b5b61294d848285612711565b509392505050565b5f82601f83011261296957612968612661565b5b8135612979848260208601612914565b91505092915050565b5f5f60408385031215612998576129976122af565b5b5f83013567ffffffffffffffff8111156129b5576129b46122b3565b5b6129c185828601612955565b925050602083013567ffffffffffffffff8111156129e2576129e16122b3565b5b6129ee85828601612955565b9150509250929050565b5f5f60408385031215612a0e57612a0d6122af565b5b5f612a1b858286016124c6565b9250506020612a2c858286016124c6565b9150509250929050565b7f4e487b71000000000000000000000000000000000000000000000000000000005f52602260045260245ffd5b5f6002820490506001821680612a7a57607f821691505b602082108103612a8d57612a8c612a36565b5b50919050565b5f606082019050612aa65f830186612488565b612ab36020830185612593565b612ac06040830184612488565b949350505050565b7f54686973204e4654206973206e6f7420666f722073616c6500000000000000005f82015250565b5f612afc601883612374565b9150612b0782612ac8565b602082019050919050565b5f6020820190508181035f830152612b2981612af0565b9050919050565b7f496e636f7272656374207061796d656e7420616d6f756e7400000000000000005f82015250565b5f612b64601883612374565b9150612b6f82612b30565b602082019050919050565b5f6020820190508181035f830152612b9181612b58565b9050919050565b5f608082019050612bab5f830187612593565b612bb86020830186612593565b612bc56040830185612488565b612bd26060830184612488565b95945050505050565b7f596f7520646f206e6f74206f776e2074686973204e46540000000000000000005f82015250565b5f612c0f601783612374565b9150612c1a82612bdb565b602082019050919050565b5f6020820190508181035f830152612c3c81612c03565b9050919050565b7f5072696365206d7573742062652067726561746572207468616e207a65726f005f82015250565b5f612c77601f83612374565b9150612c8282612c43565b602082019050919050565b5f6020820190508181035f830152612ca481612c6b565b9050919050565b5f606082019050612cbe5f830186612593565b612ccb6020830185612593565b612cd86040830184612488565b949350505050565b5f81905092915050565b5f612cf48261236a565b612cfe8185612ce0565b9350612d0e818560208601612384565b80840191505092915050565b5f612d258285612cea565b9150612d318284612cea565b91508190509392505050565b5f819050815f5260205f209050919050565b5f6020601f8301049050919050565b5f82821b905092915050565b5f60088302612d997fffffffffffffffffffffffffffffffffffffffffffffffffffffffffffffffff82612d5e565b612da38683612d5e565b95508019841693508086168417925050509392505050565b5f819050919050565b5f612dde612dd9612dd4846123fa565b612dbb565b6123fa565b9050919050565b5f819050919050565b612df783612dc4565b612e0b612e0382612de5565b848454612d6a565b825550505050565b5f5f905090565b612e22612e13565b612e2d818484612dee565b505050565b5b81811015612e5057612e455f82612e1a565b600181019050612e33565b5050565b601f821115612e9557612e6681612d3d565b612e6f84612d4f565b81016020851015612e7e578190505b612e92612e8a85612d4f565b830182612e32565b50505b505050565b5f82821c905092915050565b5f612eb55f1984600802612e9a565b1980831691505092915050565b5f612ecd8383612ea6565b9150826002028217905092915050565b612ee68261236a565b67ffffffffffffffff811115612eff57612efe612669565b5b612f098254612a63565b612f14828285612e54565b5f60209050601f831160018114612f45575f8415612f33578287015190505b612f3d8582612ec2565b865550612fa4565b601f198416612f5386612d3d565b5f5b82811015612f7a57848901518255600182019150602085019450602081019050612f55565b86831015612f975784890151612f93601f891682612ea6565b8355505b6001600288020188555050505b505050505050565b7f4e487b71000000000000000000000000000000000000000000000000000000005f52601160045260245ffd5b5f612fe3826123fa565b91507fffffffffffffffffffffffffffffffffffffffffffffffffffffffffffffffff820361301557613014612fac565b5b600182019050919050565b5f6080820190506130335f830187612593565b818103602083015261304581866123a2565b9050818103604083015261305981856123a2565b90506130686060830184612488565b95945050505050565b5f81519050919050565b5f82825260208201905092915050565b5f61309582613071565b61309f818561307b565b93506130af818560208601612384565b6130b881612392565b840191505092915050565b5f6080820190506130d65f830187612488565b6130e36020830186612488565b6130f06040830185612593565b8181036060830152613102818461308b565b905095945050505050565b5f8151905061311b816122e2565b92915050565b5f60208284031215613136576131356122af565b5b5f6131438482850161310d565b91505092915050565b5f60408201905061315f5f830185612488565b61316c6020830184612593565b9392505050565b7f4e487b71000000000000000000000000000000000000000000000000000000005f52601260045260245ffdfea264697066735822122006b7a3c35e9af1701feb8ddfd44d6406f1ebaa01881db18e87f1dac1d32c0a3064736f6c634300081c0033",
  "immutableReferences": {},
  "source": "// SPDX-License-Identifier: MIT\r\npragma solidity ^0.8.19;\r\n\r\nimport \"@openzeppelin/contracts/token/ERC721/extensions/ERC721URIStorage.sol\";\r\nimport \"@openzeppelin/contracts/access/Ownable.sol\";\r\n\r\ncontract NFTMarketplace is ERC721URIStorage, Ownable {\r\n    uint256 public nextTokenId;\r\n    mapping(uint256 => uint256) public nftPrices; // Maps tokenId to its price\r\n    mapping(uint256 => string) public nftCollections; // Maps tokenId to a collection name\r\n    uint256[] public allNFTs; // Array to store all token IDs\r\n\r\n    event NFTMinted(uint256 tokenId, string tokenURI, string collection, address owner);\r\n    event NFTListed(uint256 tokenId, uint256 price, address seller);\r\n    event NFTSold(uint256 tokenId, uint256 price, address seller, address buyer);\r\n\r\n    constructor(address initialOwner) ERC721(\"NFT Marketplace\", \"NFTM\") Ownable(initialOwner) {}\r\n\r\n    /**\r\n     * @dev Mint a new NFT, associate it with a collection, and assign metadata.\r\n     * tokenURI = IPFS hash : mintNFT(\"ipfs://<metadata-hash>\", \"MyCollection\")\r\n     */\r\n    function mintNFT(string memory tokenURI, string memory collection) public onlyOwner {\r\n        uint256 tokenId = nextTokenId;\r\n        _safeMint(msg.sender, tokenId);\r\n        _setTokenURI(tokenId, tokenURI);\r\n        nftCollections[tokenId] = collection;\r\n        allNFTs.push(tokenId); // Add the tokenId to the allNFTs array\r\n        nextTokenId++;\r\n\r\n        emit NFTMinted(tokenId, tokenURI, collection, msg.sender);\r\n    }\r\n\r\n    /**\r\n     * @dev List an NFT for sale by setting a price.\r\n     */\r\n    function listNFT(uint256 tokenId, uint256 price) public {\r\n        require(ownerOf(tokenId) == msg.sender, \"You do not own this NFT\");\r\n        require(price > 0, \"Price must be greater than zero\");\r\n\r\n        nftPrices[tokenId] = price;\r\n\r\n        emit NFTListed(tokenId, price, msg.sender);\r\n    }\r\n\r\n    /**\r\n     * @dev Buy an NFT that is listed for sale.\r\n     */\r\n    function buyNFT(uint256 tokenId) public payable {\r\n        uint256 price = nftPrices[tokenId];\r\n        address seller = ownerOf(tokenId);\r\n\r\n        require(price > 0, \"This NFT is not for sale\");\r\n        require(msg.value == price, \"Incorrect payment amount\");\r\n\r\n        // Transfer funds to the seller\r\n        payable(seller).transfer(msg.value);\r\n\r\n        // Transfer the NFT to the buyer\r\n        _transfer(seller, msg.sender, tokenId);\r\n\r\n        // Clear the listing\r\n        nftPrices[tokenId] = 0;\r\n\r\n        emit NFTSold(tokenId, price, seller, msg.sender);\r\n    }\r\n\r\n    /**\r\n     * @dev Get the collection name of an NFT.\r\n     */\r\n    function getCollection(uint256 tokenId) public view returns (string memory) {\r\n        return nftCollections[tokenId];\r\n    }\r\n\r\n    /**\r\n     * @dev Get all minted NFTs.\r\n     * Returns an array of all token IDs.\r\n     */\r\n    function getAllNFTs() public view returns (uint256[] memory) {\r\n        return allNFTs;\r\n    }\r\n}\r\n",
  "sourcePath": "C:\\Users\\pierr\\Desktop\\Blockchain a la con\\nftapp\\nft-truffle\\contracts\\NFTCollection.sol",
  "compiler": {
    "name": "solc",
    "version": "0.8.28+commit.7893614a.Emscripten.clang"
  },
  "schemaVersion": "3.4.16",
  "updatedAt": "2025-02-07T13:10:31.106Z",
  "networkType": "ethereum",
  "devdoc": {
    "errors": {
      "ERC721IncorrectOwner(address,uint256,address)": [
        {
          "details": "Indicates an error related to the ownership over a particular token. Used in transfers.",
          "params": {
            "owner": "Address of the current owner of a token.",
            "sender": "Address whose tokens are being transferred.",
            "tokenId": "Identifier number of a token."
          }
        }
      ],
      "ERC721InsufficientApproval(address,uint256)": [
        {
          "details": "Indicates a failure with the `operator`s approval. Used in transfers.",
          "params": {
            "operator": "Address that may be allowed to operate on tokens without being their owner.",
            "tokenId": "Identifier number of a token."
          }
        }
      ],
      "ERC721InvalidApprover(address)": [
        {
          "details": "Indicates a failure with the `approver` of a token to be approved. Used in approvals.",
          "params": {
            "approver": "Address initiating an approval operation."
          }
        }
      ],
      "ERC721InvalidOperator(address)": [
        {
          "details": "Indicates a failure with the `operator` to be approved. Used in approvals.",
          "params": {
            "operator": "Address that may be allowed to operate on tokens without being their owner."
          }
        }
      ],
      "ERC721InvalidOwner(address)": [
        {
          "details": "Indicates that an address can't be an owner. For example, `address(0)` is a forbidden owner in ERC-20. Used in balance queries.",
          "params": {
            "owner": "Address of the current owner of a token."
          }
        }
      ],
      "ERC721InvalidReceiver(address)": [
        {
          "details": "Indicates a failure with the token `receiver`. Used in transfers.",
          "params": {
            "receiver": "Address to which tokens are being transferred."
          }
        }
      ],
      "ERC721InvalidSender(address)": [
        {
          "details": "Indicates a failure with the token `sender`. Used in transfers.",
          "params": {
            "sender": "Address whose tokens are being transferred."
          }
        }
      ],
      "ERC721NonexistentToken(uint256)": [
        {
          "details": "Indicates a `tokenId` whose `owner` is the zero address.",
          "params": {
            "tokenId": "Identifier number of a token."
          }
        }
      ],
      "OwnableInvalidOwner(address)": [
        {
          "details": "The owner is not a valid owner account. (eg. `address(0)`)"
        }
      ],
      "OwnableUnauthorizedAccount(address)": [
        {
          "details": "The caller account is not authorized to perform an operation."
        }
      ]
    },
    "events": {
      "Approval(address,address,uint256)": {
        "details": "Emitted when `owner` enables `approved` to manage the `tokenId` token."
      },
      "ApprovalForAll(address,address,bool)": {
        "details": "Emitted when `owner` enables or disables (`approved`) `operator` to manage all of its assets."
      },
      "BatchMetadataUpdate(uint256,uint256)": {
        "details": "This event emits when the metadata of a range of tokens is changed. So that the third-party platforms such as NFT market could timely update the images and related attributes of the NFTs."
      },
      "MetadataUpdate(uint256)": {
        "details": "This event emits when the metadata of a token is changed. So that the third-party platforms such as NFT market could timely update the images and related attributes of the NFT."
      },
      "Transfer(address,address,uint256)": {
        "details": "Emitted when `tokenId` token is transferred from `from` to `to`."
      }
    },
    "kind": "dev",
    "methods": {
      "approve(address,uint256)": {
        "details": "See {IERC721-approve}."
      },
      "balanceOf(address)": {
        "details": "See {IERC721-balanceOf}."
      },
      "buyNFT(uint256)": {
        "details": "Buy an NFT that is listed for sale."
      },
      "getAllNFTs()": {
        "details": "Get all minted NFTs. Returns an array of all token IDs."
      },
      "getApproved(uint256)": {
        "details": "See {IERC721-getApproved}."
      },
      "getCollection(uint256)": {
        "details": "Get the collection name of an NFT."
      },
      "isApprovedForAll(address,address)": {
        "details": "See {IERC721-isApprovedForAll}."
      },
      "listNFT(uint256,uint256)": {
        "details": "List an NFT for sale by setting a price."
      },
      "mintNFT(string,string)": {
        "details": "Mint a new NFT, associate it with a collection, and assign metadata. tokenURI = IPFS hash : mintNFT(\"ipfs://<metadata-hash>\", \"MyCollection\")"
      },
      "name()": {
        "details": "See {IERC721Metadata-name}."
      },
      "owner()": {
        "details": "Returns the address of the current owner."
      },
      "ownerOf(uint256)": {
        "details": "See {IERC721-ownerOf}."
      },
      "renounceOwnership()": {
        "details": "Leaves the contract without owner. It will not be possible to call `onlyOwner` functions. Can only be called by the current owner. NOTE: Renouncing ownership will leave the contract without an owner, thereby disabling any functionality that is only available to the owner."
      },
      "safeTransferFrom(address,address,uint256)": {
        "details": "See {IERC721-safeTransferFrom}."
      },
      "safeTransferFrom(address,address,uint256,bytes)": {
        "details": "See {IERC721-safeTransferFrom}."
      },
      "setApprovalForAll(address,bool)": {
        "details": "See {IERC721-setApprovalForAll}."
      },
      "supportsInterface(bytes4)": {
        "details": "See {IERC165-supportsInterface}"
      },
      "symbol()": {
        "details": "See {IERC721Metadata-symbol}."
      },
      "tokenURI(uint256)": {
        "details": "See {IERC721Metadata-tokenURI}."
      },
      "transferFrom(address,address,uint256)": {
        "details": "See {IERC721-transferFrom}."
      },
      "transferOwnership(address)": {
        "details": "Transfers ownership of the contract to a new account (`newOwner`). Can only be called by the current owner."
      }
    },
    "version": 1
  },
  "userdoc": {
    "kind": "user",
    "methods": {},
    "version": 1
  }
}